:020000040000FA
:1000000083018B018A016E28A000030EA1008301E9
:10001000851D1A282808820723282C2832283228F0
:100020003228322832283228322838283F284728D8
:100030004F285E28B33081000B110B10210E830076
:10004000A00E200E09002B1CA70A0B19A701F630E1
:1000500027070318A80A1D280B19A80AA901A70138
:10006000A6011D2803140B190310A20DA80A1D28B0
:1000700003140B190310A20D290AA8071D2800302C
:100080000B190230A8002208A300A90A1D2800307D
:100090000B190230A8002208A400A90A1D280B1D74
:1000A00058280230A8002208A500A90AAB151D286F
:1000B000A8012208A5002B14AB111D28A8010B19BB
:1000C0001E282208A6002B141D28820701340234A2
:1000D000043408341034203440348034850107302F
:1000E00099008316FF239000FD308500373095007E
:1000F0000830960099018830810000308C0083120E
:100100008F01013090008C01203084008001840A2E
:1001100060300406031D8628051C2B162B1A922816
:10012000FF308E21B62246230F30CF008C0188305D
:100130008B000230CE00D1002B1825222B1EA728C1
:100140000C1C9C280C104F0DCF0D8E219C28AB1B36
:100150009C280C1CF0280C10D10BF0283B08D10077
:100160002030AB0640308400C01CBA282030CA00C2
:10017000DB01D720840AC11CC1281030CA00DC0171
:10018000D720840AC21CC8280130CA00DD01D7204C
:10019000840AC31CCF280230CA00DE01D720840A9B
:1001A000C41CF0280430CA00DF01D720F0284A0917
:1001B000D305D4054A08AB1EE0280019D404080072
:1001C000001DD4040800CA000030CA1A56044A1A96
:1001D00057044A185804CA1859044A195A040800FE
:1001E000CE0B74293A08CE000030C0182038C11850
:1001F0001038C2180138C3180238C4180438BE00B9
:1002000045083E0503194508E320031D0F2956083C
:100210000319D41E0F29D412D3163108DB00460867
:100220003E0503194608E320031D1E29570803193C
:10023000541E1E29541253163208DC0047083E058E
:1002400003194708E320031D2D2958080319541CDE
:100250002D29541053143308DD0048083E050319B6
:100260004808E320031D3C2959080319D41C3C29E4
:10027000D410D3143408DE0049083E050319490898
:10028000E320031D4B295A080319541D4B2954110F
:1002900053153508DF0056085B0603195329013052
:1002A000D31EFF30D60757085C0603195B290130BF
:1002B000531EFF30D70758085D0603196329013024
:1002C000531CFF30D80759085E0603196B2901300B
:1002D000D31CFF30D9075A085F0603199C28013048
:1002E000531DFF30DA079C28D2010F0E0F38D500BE
:1002F00056070318D2165508570703185216550803
:10030000580703185214550859070318D2145508F2
:100310005A070318521552098E219C280838850067
:1003200083168500831208000739AD004F060319B4
:10033000FE292D08CF000310AD0D03102D0D0C3E2E
:10034000AD008523BC00BC1AC5003C1AC6003C1891
:10035000C700BC18C8003C19C9002D0A8523BD0080
:100360002D08023E8523BE002D08033E8523BF00D5
:10037000BC1EC629C001BD1A4014BE1AC014BF1A43
:100380004015DB01D312D412BD1AD4163C1ED42959
:10039000C1013D1A41143E1AC1143F1A4115DC0136
:1003A000531254123D1A54163C1CE229C2013D1846
:1003B00042143E18C2143F184215DD015310541068
:1003C0003D185414BC1CF029C301BD184314BE18B9
:1003D000C314BF184315DE01D310D410BD18D414B4
:1003E0003C1DFE29C4013D1944143E19C4143F1993
:1003F0004415DF01531154113D195415AB138B17DC
:100400003C08AC007630BC1A8B2377303C1A8B2327
:1004100078303C188B237930BC188B237A303C1908
:100420008B234008AC007B308B234108AC007C3030
:100430008B234208AC007D308B234308AC007E3018
:100440008B234408AC007F308B2B8B132B1023089D
:10045000240625062606031D8C2A23080319602A74
:10046000C039803A031D582A2B1A292B391B452ADB
:10047000380888382406F839031D8C2A23083F39A8
:100480003006031D8C2A24089429380801382406D4
:10049000F939031D8C2A51223006031D8C2A2508A8
:1004A0009429A40EA40DA40DA30DA40D230D0800E2
:1004B0002308F039703A0319682A230F8C2A8D2AF1
:1004C0002408031D8C2A2B13AB17FF308E218D2A95
:1004D000AB1F8B2A2B1F892AAB1D8D2A2B132508B6
:1004E000AC0023188D2A2408D422AB188D2AA31916
:1004F0007B2A231D8D2A231D8F2AA31D852A2B1DB0
:100500000923B622A9222B138D2A85232506031D34
:100510008D2A2B178D2A2B13AB138B1708008523DD
:10052000AC002C308400073025056520251EA02A4C
:10053000A5198004FF3AA51D80052408D422772A36
:1005400000050319A62AA519822A8D2AA51D822A2B
:100550008D2A00308E210630CA000030FF3E031D78
:10056000AE2ACA0BAE2AFF308E210800303084003C
:100570000030AD002D08852380003B3004060319B0
:10058000C42A840AAD0ABA2AB80E38097039B800EC
:10059000F030B104B10EB204B20EB304B30EB40421
:1005A000B40EB504B50E0800AB102B11003A0319B8
:1005B0000034083A03190834143A031909341D3A6F
:1005C00003190134033A03190234013A03190334BD
:1005D000073A03190434013A03190534253A03197B
:1005E0000A34013A03190B34CA00213ADE3E031CD7
:1005F000FF2AE03E0318FF2A203E0C3E08004A086E
:10060000263A031907342B15013A03190634AB14A3
:100610007F34073A03190E2B073A8B2B2C08213A0B
:10062000CB30031D9F30BD000330BC000030BF0045
:100630002C30CB002523AC003F088B23BD0A0319C7
:10064000BC0ABF0ACB0B1A2B08003C088A003D08E5
:100650008200A41F362B80303A2323083F39B00094
:10066000AC0000308B23FF30CF008C2AC0303A23FF
:1006700051222F2BB900AC0009308B23240E0739EF
:10068000B800B80E073AAC0008308B2BD3017B3092
:100690008523C0004018D3163108D31E0301DB00A8
:1006A0007C308523C100411853163208531E0301C4
:1006B000DC007D308523C200421853143308531CDC
:1006C0000301DD007E308523C3004318D3143408B2
:1006D000D31C0301DE007F308523C400441853156A
:1006E0003508531D0301DF0076308523C5007730C0
:1006F0008523C60078308523C70079308523C8005C
:100700007A308523C900D401080083169B001C148D
:100710001A088312080085232C06031908002C08E8
:1007200083169A001C158B1355309D00AA309D002E
:100730009C141C119C189A2B8B17831208000134EF
:100740000F340F340F340F340F3419340D34003498
:1007500080341434093430342034003400343034DC
:1007600010340034003407340234003400340734C9
:1007700004340034003407340134003400340734C6
:1007800005340034003407340434043400340734AE
:1007900001340134003401340F340F340F340F347A
:1007A0000F3419340D3400348034143409343734A0
:1007B0000234003400343734043400340034373425
:1007C00020340034003437342434003400343734D7
:1007D0000334003400343734033401340034373404
:0E07E000123400340034373412341034003434
:02400E00C43FAD
:1042000001000F000F000F000F000F0019000D003C
:1042100000008000140009003000200000000000B1
:104220003000100000000000070002000000000045
:10423000070004000000000007000100000000006B
:104240000700050000000000070004000400000053
:0842500007000100010000005D
:1042800055346E346934533465346D346134663476
:1042900046342E3443346134F1346134643461344F
:1042A000333431342F34303435342F3432343334E2
:1042B00020343134323446343634323439342034D4
:0442EC00300030006E
:1042F00007000700070001000000000001000000A7
:00000001FF
