:020000040000FA
:1000000083018B018A016E28F000030EF100830149
:10001000851D1A287808820723282C2832283228A0
:100020003228322832283228322838283F284728D8
:100030004F285E28B33081000B110B10710E830026
:10004000F00E700E09007B1CF70A0B19F701F63051
:1000500077070318F80A1D280B19F80AF901F701A8
:10006000F6011D2803140B190310F20DF80A1D28C0
:1000700003140B190310F20D790AF8071D2800303C
:100080000B190230F8007208F300F90A1D2800303D
:100090000B190230F8007208F400F90A1D280B1D34
:1000A00058280230F8007208F500F90AFB151D28DF
:1000B000F8017208F5007B14FB111D28F8010B19DB
:1000C0001E287208F6007B141D28820701340234B2
:1000D00004340834103420344034803485019801CD
:1000E000073099009F01831600309F00FD30850086
:1000F00064003730950008309600990188308100FF
:1001000000308C0083128F01013090008C01003090
:1001100092009501203084008001840A803004061A
:10012000031D8C28051C7B167B1A9828FF30942110
:10013000BC2259230F30CF008C0188308B00023055
:10014000CE00D1007B182B227B1EAD280C1CA228D0
:100150000C104F0DCF0D9421A228FB1BA2280C1CC4
:10016000F6280C10D10BF6283B08D1002030FB06F6
:1001700040308400C01CC0282030CA00DB01DD20D4
:10018000840AC11CC7281030CA00DC01DD20840AA3
:10019000C21CCE280130CA00DD01DD20840AC31C48
:1001A000D5280230CA00DE01DD20840AC41CF628EE
:1001B0000430CA00DF01DD20F6284A09D305D40542
:1001C0004A08FB1EE6280019D4040800001DD404C8
:1001D0000800CA000030CA1A56044A1A57044A18BE
:1001E0005804CA1859044A195A040800CE0B7A292F
:1001F0003A08CE000030C0182038C1181038C21894
:100200000138C3180238C4180438BE0045083E053A
:1002100003194508E920031D152956080319D41EA2
:100220001529D412D3163108DB0046083E05031900
:100230004608E920031D242957080319541E2429C0
:10024000541253163208DC0047083E0503194708CC
:10025000E920031D332958080319541C332954106D
:1002600053143308DD0048083E0503194808E92007
:10027000031D422959080319D41C4229D410D31450
:100280003408DE0049083E0503194908E920031D2A
:1002900051295A080319541D512954115315350871
:1002A000DF0056085B06031959290130D31EFF30C1
:1002B000D60757085C06031961290130531EFF3029
:1002C000D70758085D06031969290130531CFF3010
:1002D000D80759085E06031971290130D31CFF3075
:1002E000D9075A085F060319A2280130531DFF30B1
:1002F000DA07A228D2010F0E0F38D50056070318CF
:10030000D2165508570703185216550858070318F0
:100310005214550859070318D21455085A070318E0
:10032000521552099421A2280838850083168500A9
:10033000831208000739FD004F060319042A7D08BF
:10034000CF000310FD0D03107D0D0C3EFD00982322
:10035000BC00BC1AC5003C1AC6003C18C700BC183B
:10036000C8003C19C9007D0A9823BD007D08023EE3
:100370009823BE007D08033E9823BF00BC1ECC29F5
:10038000C001BD1A4014BE1AC014BF1A4015DB01CB
:10039000D312D412BD1AD4163C1EDA29C1013D1A5B
:1003A00041143E1AC1143F1A4115DC015312541274
:1003B0003D1A54163C1CE829C2013D1842143E184F
:1003C000C2143F184215DD01531054103D18541447
:1003D000BC1CF629C301BD184314BE18C314BF18B2
:1003E0004315DE01D310D410BD18D4143C1D042ACB
:1003F000C4013D1944143E19C4143F194415DF01CA
:10040000531154113D195415FB138B173C08FC0074
:100410007630BC1A9E2377303C1A9E2378303C18E5
:100420009E237930BC189E237A303C199E234008C5
:10043000FC007B309E234108FC007C309E23420858
:10044000FC007D309E234308FC007E309E23440840
:10045000FC007F309E2B8B137B107308740675068F
:100460007606031D922A73080319662AC039803A5A
:10047000031D5E2A7B1A3C2B391B4B2A380888380F
:100480007406F839031D922A73083F393006031D9C
:10049000922A74089A29380801387406F939031D1C
:1004A000922A57223006031D922A75089A29F40EC3
:1004B000F40DF40DF30DF40D730D08007308F0390D
:1004C000703A03196E2A730F922A932A7408031D37
:1004D000922A7B13FB17FF309421932AFB1F912A4A
:1004E0007B1F8F2AFB1D932A7B137508FC00731852
:1004F000932A7408DA22FB18932AF319812A731DB0
:10050000932A731D952AF31D8B2A7B1D0F23BC2272
:10051000AF227B13932A98237506031D932A7B171A
:10052000932A7B13FB138B1708009823FC007C3065
:100530008400073075056520751EA62AF51980040C
:10054000FF3AF51D80057408DA227D2A000503199B
:10055000AC2AF519882A932AF51D882A932A003097
:1005600094210630CA000030FF3E031DB42ACA0B96
:10057000B42AFF3094210800303084000030FD00A0
:100580007D08982380003B3004060319CA2A840A98
:10059000FD0AC02AB80E38097039B800F030B1042D
:1005A000B10EB204B20EB304B30EB404B40EB5046B
:1005B000B50E0800FB107B11003A03190034083A0D
:1005C00003190834143A031909341D3A0319013484
:1005D000033A03190234013A03190334073A0319A1
:1005E0000434013A03190534253A03190A34013A4F
:1005F00003190B34CA00213ADE3E031C052BE03EF2
:100600000318052B203E0C3E08004A08263A031921
:1006100007347B15013A03190634FB147F34073A7B
:100620000319142B073A9E2B7C082C23BD000430A1
:10063000BC000030BF002C30CB002823FC003F085A
:100640009E23BD0A0319BC0ABF0ACB0B1D2B080051
:100650003C088A003D0882000A3A031958340D3AD2
:10066000031984340E3A0319B0340A3A0319DC34FE
:10067000223A03192C340034F41F492B80304D23C7
:1006800073083F39B000FC0000309E23FF30CF00DC
:10069000922AC0304D235722422BB900FC0009306A
:1006A0009E23740E0739B800B80E073AFC000830D4
:1006B0009E2BD3017B309823C0004018D3163108FD
:1006C000D31E0301DB007C309823C1004118531670
:1006D0003208531E0301DC007D309823C20042180B
:1006E00053143308531C0301DD007E309823C300EC
:1006F0004318D3143408D31C0301DE007F30982341
:10070000C400441853153508531D0301DF0076302B
:100710009823C50077309823C60078309823C70007
:1007200079309823C8007A309823C900D401080092
:1007300083169B001C141A088312080098237C0659
:10074000031908007C0883169A001C158B1355307A
:100750009D00AA309D009C141C119C18AD2B8B177A
:0407600083120800F8
:1008000001340F340F340F340F340F3419340D34D6
:10081000003480341434093430342034003400344B
:1008200030341034003400340734023400340034DF
:100830000734043400340034073401340034003405
:1008400007340534003400340734043404340034ED
:10085000073401340134003401340F340F340F34C1
:100860000F340F3419340D34003480341434093407
:100870003734023400340034373404340034003464
:100880003734203400340034373424340034003416
:100890003734033400340034373403340134003443
:1008A0003734123400340034373412341034003406
:1008B00001340F340F340F340F340F3419340D3426
:1008C0000034803414340934373422340034003492
:1008D00037341434003400343734313400340034C5
:1008E0000034003400340034003400340034003468
:1008F0000034003400340034003400340034003458
:10090000003400340034003401340F340F340F3419
:100910000F340F3419340D34003480341434093456
:1009200017340234003400341734043400340034F3
:1009300017340134003400341734053400340034E3
:1009400017341034003400341734123400340034B7
:1009500017341234103400340034003400340034BE
:1009600001340F340F340F340F340F3419340D3475
:100970000034803414340934173410340034003413
:100980001734113400340034173403340034003485
:10099000173406340034003400340034003400349A
:1009A00000340034003400340034003400340034A7
:1009B000003400340034003401340F340F340F3469
:1009C0000F340F3419340D340034803414340934A6
:1009D000363400340034003436342434363424348D
:1009E0000034003400340034003400340034003467
:1009F0000034003400340034003400340034003457
:100A00000034003400340034003400340034003446
:02400E00C433B9
:1042000001000F000F000F000F000F0019000D003C
:1042100000008000140009003000200000000000B1
:104220003000100000000000070002000000000045
:10423000070004000000000007000100000000006B
:104240000700050000000000070004000400000053
:0842500007000100010000005D
:1042800055346E346934533465346D346134663476
:1042900046342E3443346134F1346134643461344F
:1042A000333431342F34303435342F3432343334E2
:1042B00020343134323446343634383433342034D4
:0442EC00300030006E
:1042F00007000700070001000000000001000000A7
:00000001FF
