:020000040000FA
:1000000083018B018A017828A000030EA1008301DF
:10001000051D1A28280882072D2836283C283C2848
:100020003C283C283C283C283C2842284928512888
:1000300059286828B33081000B118B1083160117E3
:10004000210E8300A00E200E09008B1083160113D1
:10005000210E8300A00E200E09002B1CA70A0B19ED
:10006000A701F63027070318A80A25280B19A80AA4
:10007000A901A701A601252803140B190310A20D3D
:10008000A80A252803140B190310A20D290AA80792
:10009000252800300B190230A8002208A300A90A65
:1000A000252800300B190230A8002208A400A90A54
:1000B00025280B1D62280230A8002208A500A90AE5
:1000C000AB152528A8012208A5002B14AB11252863
:1000D000A8010B1928282208A6002B14252882071E
:1000E0000134023404340834103420344034803471
:1000F00085010730990083160C308500FF2390009E
:1001000033309500960199018830810000308C00D1
:1001100083128C0101309000203084008001840A19
:1001200060300406031D8E2890308B00AA01EF2258
:100130000B230F30D1000230D000D3002B181B222C
:10014000CB0BAC284B150310851903144A0DCA00BC
:10015000C03A10300319AB062B1A9329AB1B9E280B
:100160000C1CED280C10D30BED283A08D3002030DE
:10017000AB06C01CC628DC0155105610AB1EC228A9
:1001800040195614AB1AC628401D5614C11CD3285A
:10019000DD01D510D610AB1ECF284119D614AB1AED
:1001A000D328411DD614C21CE028DE015512561278
:1001B000AB1EDC2842195616AB1AE028421D561613
:1001C000C31CED28DF01D512D612AB1EE928431956
:1001D000D616AB1AED28431DD616D00B7C2939084C
:1001E000D0000030C0180138C1180238C2181038C9
:1001F000C3182038BE0044083E0503194408C8004F
:10020000003048185804C8185904481A5A04C81A23
:100210005B04031D132958080319561C1329561093
:1002200055143108DC0045083E0503194508C8008F
:10023000003048185804C8185904481A5A04C81AF3
:100240005B04031D2B2959080319D61C2B29D61032
:10025000D5143208DD0046083E0503194608C800DB
:10026000003048185804C8185904481A5A04C81AC3
:100270005B04031D43295A080319561E43295612CD
:1002800055163308DE0047083E0503194708C80025
:10029000003048185804C8185904481A5A04C81A93
:1002A0005B04031D5B295B080319D61E5B29D6126C
:1002B000D5163408DF0058085C060319632901309D
:1002C000551CFF30D80759085D0603196B2901300A
:1002D000D51CFF30D9075A085E060319732901306F
:1002E000551EFF30DA075B085F0603199E280130B0
:1002F000D51EFF30DB079E28D4010F0C0E0C0F38E3
:10030000D700580703185414570859070318D41472
:1003100057085A070318541657085B070318D416D2
:10032000540885009E280C1C9E280C1001300518CE
:10033000023085181030051A2030851A01308500EA
:100340009E280739AD0051060319FB292D08D1005D
:100350000310AD0D03102D0D0B3EAD009A23BC0014
:100360003C18C400BC18C5003C1AC600BC1AC70023
:100370002D0A9A23BD002D08023E9A23BE002D08A7
:10038000033E9A23BF003C1CD129C0013D184014F4
:100390003E18C0143F184015DC01551056103D188A
:1003A0005614BC1CDF29C101BD184114BE18C1146C
:1003B000BF184115DD01D510D610BD18D6143C1E4E
:1003C000ED29C2013D1A42143E1AC2143F1A4215C9
:1003D000DE01551256123D1A5616BC1EFB29C301EA
:1003E000BD1A4314BE1AC314BF1A4315DF01D51238
:1003F000D612BD1AD616AB138B173C08AC0078305A
:100400003C18A0237930BC18A0237A303C1AA023D2
:100410007B30BC1AA0234008AC007C30A0234108EC
:10042000AC007D30A0234208AC007E30A0234308FE
:10043000AC007F30A02B8B132B102308240625063D
:100440002606031D4A2A23080319422AC039803A86
:10045000031D392A2B1A872B370888382406F839C8
:10046000031D4A2A23083F393006031D4A2A24085F
:10047000A1292308F039703A03194D2A230F4A2A7B
:100480008B1708002408031D4A2A2B13AB1785017C
:100490008B170800AB138B170800AB1F962A2B1F76
:1004A000942AAB19B42A2B132408AC002308F7397B
:1004B000753A03196F2A013A03196D2A023A031992
:1004C0007D2A013A0319812A230803392A073E238A
:1004D000AB18A62AA31D8D2A852A08306A2AA31DD7
:1004E000772AA403A40D240DFC39AA00A62AA4038C
:1004F000A40D240DFC392A068F2A0530A31D8D2A50
:10050000A62A0630A31D8D2A9C2A2B19992AA023DE
:10051000A8222B132B10EF22A62A9A232406031DB0
:10052000A62AA8222B13A62A2B17A62AAB132B1315
:10053000A62A063A031DA62A21302406031DA62A50
:100540007023A8222B132B10EF22A62A8B1708004A
:10055000333085000630C8000030FF3E031DAD2A51
:10056000C80BAD2A850108002B132508AC00231801
:10057000A62A24083E23AB18A62AA319C12A231DA4
:10058000A62A231DD52AA31DCD2A2B19D02AA023A4
:10059000A8222B132B10EF22A62A9A2325068F2A96
:1005A00021302506031DA62AA02A9A23AC002C3050
:1005B0008400073025056F20251EE62AA519800432
:1005C000FF3AA51D800524083E23BD2A0005031916
:1005D000EC2AA519912AA62AA51D912AA62A30300F
:1005E00084000030AD002D089A2380003A300406C4
:1005F0000319FD2A840AAD0AF32AB70E37097039A8
:10060000B700F030B104B10EB204B20EB304B30EB1
:10061000B404B40E0800D5017C309A23C000401801
:1006200055143108551C0301DC007D309A23C100AC
:100630004118D5143208D51C0301DD007E309A2301
:10064000C200421855163308551E0301DE007F30E4
:100650009A23C3004318D5163408D51E0301DF00C2
:1006600078309A23C40079309A23C5007A309A23CF
:10067000C6007B309A23C700D6010800AB102B11AF
:10068000003A03190034083A03190734143A0319DD
:1006900008341E3A03190134013A03190234073AA7
:1006A00003190334013A03190434253A03190934B0
:1006B000013A03190A34C800213ADE3E031C662BB6
:1006C000E03E0318662B203E0B3E080048082B1521
:1006D000273A03190534013A03190634AB147F3461
:1006E0000330BC00B430BD000030BF002B30C90067
:1006F0008323AC003F08A023BD0A0319BC0ABF0A2C
:10070000C90B782B08003C088A003D088200A41F12
:100710004A2A850123083F39B000AC000030A023ED
:10072000240E0739B700B70E073AAC000730A023F4
:100730002B122A2A83169B001C141A088312080005
:100740009A232C06031908002C0883169A001C15FE
:100750008B1355309D00AA309D009C148B171C11E3
:100760009C18B02B8312080001340F340F340F345F
:100770000F340A340D340034803414340934033413
:100780000134003400340334023400340034303493
:100790001034003400343034203400340034003459
:1007A00000340034003400340034003400340034A9
:0E07B0000034003400340034003400340034CF
:02400E00C43FAD
:1042000001000F000F000F000F000A000D0000005A
:1042100080001400090003000100000000000300FA
:10422000020000000000300010000000000030001C
:10423000200000000000000000000000000000005E
:10424000000000000000000000000000000000006E
:0642500000000000000068
:1042B00055346E346934533465346D346134663446
:1042C00046342E3443346134F1346134643461341F
:1042D000323432342F34303435342F3430343734B0
:1042F0000300030030003000010000000100000056
:00000001FF
