:020000040000FA
:1000000083018B018A017828A000030EA1008301DF
:10001000051D1A28280882072D2836283C283C2848
:100020003C283C283C283C283C2842284928512888
:1000300059286828B33081000B118B1083160117E3
:10004000210E8300A00E200E09008B1083160113D1
:10005000210E8300A00E200E09002B1CA70A0B19ED
:10006000A701F63027070318A80A25280B19A80AA4
:10007000A901A701A601252803140B190310A20D3D
:10008000A80A252803140B190310A20D290AA80792
:10009000252800300B190230A8002208A300A90A65
:1000A000252800300B190230A8002208A400A90A54
:1000B00025280B1D62280230A8002208A500A90AE5
:1000C000AB152528A8012208A5002B14AB11252863
:1000D000A8010B1928282208A6002B14252882071E
:1000E0000134023404340834103420344034803471
:1000F00085010730990083160C308500FF2390009E
:1001000033309500960199018830810000308C00D1
:1001100083128C0101309000203084008001840A19
:1001200060300406031D8E2890308B00AA01042342
:1001300020230F30D1000230D000D3002B181B2217
:10014000CB0BAC284B150310851903144A0DCA00BC
:10015000C03A10300319AB062B1A9329AB1B9E280B
:100160000C1CED280C10D30BED283A08D3002030DE
:10017000AB06C01CC628DC0155105610AB1EC228A9
:1001800040195614AB1AC628401D5614C11CD3285A
:10019000DD01D510D610AB1ECF284119D614AB1AED
:1001A000D328411DD614C21CE028DE015512561278
:1001B000AB1EDC2842195616AB1AE028421D561613
:1001C000C31CED28DF01D512D612AB1EE928431956
:1001D000D616AB1AED28431DD616D00B7C2939084C
:1001E000D0000030C0180138C1180238C2181038C9
:1001F000C3182038BE0044083E0503194408C8004F
:10020000003048185804C8185904481A5A04C81A23
:100210005B04031D132958080319561C1329561093
:1002200055143108DC0045083E0503194508C8008F
:10023000003048185804C8185904481A5A04C81AF3
:100240005B04031D2B2959080319D61C2B29D61032
:10025000D5143208DD0046083E0503194608C800DB
:10026000003048185804C8185904481A5A04C81AC3
:100270005B04031D43295A080319561E43295612CD
:1002800055163308DE0047083E0503194708C80025
:10029000003048185804C8185904481A5A04C81A93
:1002A0005B04031D5B295B080319D61E5B29D6126C
:1002B000D5163408DF0058085C060319632901309D
:1002C000551CFF30D80759085D0603196B2901300A
:1002D000D51CFF30D9075A085E060319732901306F
:1002E000551EFF30DA075B085F0603199E280130B0
:1002F000D51EFF30DB079E28D4010F0C0E0C0F38E3
:10030000D700580703185414570859070318D41472
:1003100057085A070318541657085B070318D416D2
:10032000540885009E280C1C9E280C1001300518CE
:10033000023085181030051A2030851A01308500EA
:100340009E280739AD0051060319FB292D08D1005D
:100350000310AD0D03102D0D0B3EAD00B923BC00F5
:100360003C18C400BC18C5003C1AC600BC1AC70023
:100370002D0AB923BD002D08023EB923BE002D0869
:10038000033EB923BF003C1CD129C0013D184014D5
:100390003E18C0143F184015DC01551056103D188A
:1003A0005614BC1CDF29C101BD184114BE18C1146C
:1003B000BF184115DD01D510D610BD18D6143C1E4E
:1003C000ED29C2013D1A42143E1AC2143F1A4215C9
:1003D000DE01551256123D1A5616BC1EFB29C301EA
:1003E000BD1A4314BE1AC314BF1A4315DF01D51238
:1003F000D612BD1AD616AB138B173C08AC0078305A
:100400003C18BF237930BC18BF237A303C1ABF2375
:100410007B30BC1ABF234008AC007C30BF234108AE
:10042000AC007D30BF234208AC007E30BF234308C0
:10043000AC007F30BF2B8B132B102308240625061E
:100440002606031D5F2A23080319572AC039803A5C
:10045000031D4E2A2B1A9C2B381B3B2A3708883841
:100460002406F839031D5F2A23083F393006031D8F
:100470005F2A2408A129370801382406F939031D09
:100480005F2A47223006031D5F2A2508A129A40EF2
:10049000A40DA40DA30DA40D230D08002308F0390D
:1004A000703A0319622A230F5F2A8B170800240869
:1004B000031D5F2A2B13AB1785018B170800AB13A5
:1004C0008B170800AB1FAB2A2B1FA92AAB19C92A0F
:1004D0002B132408AC002308F739753A0319842A32
:1004E000013A0319822A023A0319922A013A03199E
:1004F000962A230803392A075323AB18BB2AA31DC6
:10050000A22A9A2A08307F2AA31D8C2AA403A40DAC
:10051000240DFC39AA00BB2AA403A40D240DFC3928
:100520002A06A42A0530A31DA22ABB2A0630A31D31
:10053000A22AB12A2B19AE2ABF23BD222B132B10BE
:100540000423BB2AB9232406031DBB2ABD222B1377
:10055000BB2A2B17BB2AAB132B13BB2A063A031D4E
:10056000BB2A21302406031DBB2A8523BD222B1361
:100570002B100423BB2A8B1708003330850006306C
:10058000C8000030FF3E031DC22AC80BC22A8501E5
:1005900008002B132508AC002318BB2A240853237A
:1005A000AB18BB2AA319D62A231DBB2A231DEA2A6E
:1005B000A31DE22A2B19E52ABF23BD222B132B10E2
:1005C0000423BB2AB9232506A42A21302506031DAE
:1005D000BB2AB52AB923AC002C308400073025058E
:1005E0006F20251EFB2AA5198004FF3AA51D800552
:1005F00024085323D22A00050319012BA519A62A82
:10060000BB2AA51DA62ABB2A303084000030AD00CD
:100610002D08B92380003A3004060319122B840AEE
:10062000AD0A082BB70E37097039B700F030B104A6
:10063000B10EB204B20EB304B30EB404B40E08008B
:10064000D5017C30B923C000401855143108551C21
:100650000301DC007D30B923C1004118D5143208F4
:10066000D51C0301DD007E30B923C20042185516A7
:100670003308551E0301DE007F30B923C300431841
:10068000D5163408D51E0301DF007830B923C40025
:100690007930B923C5007A30B923C6007B30B9233D
:1006A000C700D6010800AB102B11003A0319003423
:1006B000083A03190734143A031908341E3A031987
:1006C0000134013A03190234073A03190334013A99
:1006D00003190434253A03190934013A03190A3479
:1006E000C800213ADE3E031C7B2BE03E03187B2B27
:1006F000203E0B3E080048082B15273A0319053405
:10070000013A03190634AB147F340330BC00D330F4
:10071000BD000030BF002B30C9009823AC003F085B
:10072000BF23BD0A0319BC0ABF0AC90B8D2B0800E1
:100730003C088A003D088200A41FA92B8030AD230D
:1007400023083F39B000AC000030BF2385012B12D5
:100750002A2AC030AD234722A22BB800AC000830B3
:10076000BF23240E0739B700B70E073AAC00073095
:10077000BF2B83169B001C141A0883120800B92390
:100780002C06031908002C0883169A001C158B13DD
:1007900055309D00AA309D009C148B171C119C188D
:1007A000CF2B8312080001340F340F340F340F3471
:1007B0000A340D34003480341434093403340134E1
:1007C0000034003403340234003400343034103444
:1007D0000034003430342034003400340034003429
:1007E0000034003400340034003400340034003469
:0C07F000003400340034003400340034C5
:02400E00C43FAD
:1042000001000F000F000F000F000A000D0000005A
:1042100080001400090003000100000000000300FA
:10422000020000000000300010000000000030001C
:10423000200000000000000000000000000000005E
:10424000000000000000000000000000000000006E
:0642500000000000000068
:1042B00055346E346934533465346D346134663446
:1042C00046342E3443346134F1346134643461341F
:1042D000303434342F34313430342F3431343434B6
:1042F0000300030030003000010000000100000056
:00000001FF
