:020000040000FA
:1000000083018B018A017528F000030EF100830142
:10001000861F1A2878088207292832283828382885
:10002000382838283828382838283E2845284D28A8
:1000300055286428663081000B110B10710E830067
:10004000F00E700E09000B10710E8300F00E700E92
:1000500009007B1CF70A0B19F701F6307707031824
:10006000F80A23280B19F80AF901F701F6012328E9
:1000700003140B190310F20DF80A232803140B19AB
:100080000310F20D790AF807232800300B1902300B
:10009000F8007208F300F90A232800300B19023027
:1000A000F8007208F400F90A23280B1D5E280230BC
:1000B000F8007208F500F90AFB152328F801720808
:1000C000F5007B14FB112328F8010B192428720872
:1000D000F6007B1423288A01820701340234043499
:1000E00008341034203440348034850186010730D0
:1000F0009F008316A0308600103085009F01883055
:10010000810000308C0083128C011130900020306F
:1001100084008001840A80300406031D8928883009
:100120008B00FA018A24A624FF30D1000230D000CF
:10013000D2007B188C23DB0BA7285B150310861AD3
:1001400003145A0DDA00C03A10300319FB067B1A6B
:100150009E2AFB1B99280C1C1C290C10D20B1C2955
:100160002A08D2002030FB06B01CC128C801551057
:100170005610FB1EBD2830195614FB1AC128301D1D
:100180005614B11CCE28C901D510D610FB1ECA28A2
:100190003119D614FB1ACE28311DD614B21CDB2817
:1001A000CA0155115611FB1ED72832195615FB1AD4
:1001B000DB28321D5615B31CE828CB01D511D6110A
:1001C000FB1EE4283319D615FB1AE828331DD61573
:1001D000B41CF528CC0155125612FB1EF128341917
:1001E0005616FB1AF528341D5616B51C0229CD01EA
:1001F000D512D612FB1EFE283519D616FB1A022977
:10020000351DD616B61C0F29CE0155135613FB1EED
:100210000B2936195617FB1A0F29361D5617B71C0E
:100220001C29CF01D513D613FB1E18293719D61751
:10023000FB1A1C29371DD617D00B732A2908D000AA
:100240000030B0180138B1180238B2180438B318A9
:100250000838B4181038B5182038B6184038B71810
:100260008038AE0038082E0503193808D800003051
:1002700058184004D818410458194204D8194304A6
:10028000581A4404D81A4504581B4604D81B47047E
:10029000031D522940080319561C522956105514A3
:1002A0002108C80039082E0503193908D800003084
:1002B00058184004D818410458194204D819430466
:1002C000581A4404D81A4504581B4604D81B47043E
:1002D000031D722941080319D61C7229D610D514A2
:1002E0002108C9003A082E0503193A08D800003041
:1002F00058184004D818410458194204D819430426
:10030000581A4404D81A4504581B4604D81B4704FD
:10031000031D922942080319561D9229561155159D
:100320002208CA003B082E0503193B08D8000030FC
:1003300058184004D818410458194204D8194304E5
:10034000581A4404D81A4504581B4604D81B4704BD
:10035000031DB22943080319D61DB229D611D5159C
:100360002208CB003C082E0503193C08D8000030B9
:1003700058184004D818410458194204D8194304A5
:10038000581A4404D81A4504581B4604D81B47047D
:10039000031DD22944080319561ED2295612551698
:1003A0002308CC003D082E0503193D08D800003075
:1003B00058184004D818410458194204D819430465
:1003C000581A4404D81A4504581B4604D81B47043D
:1003D000031DF22945080319D61EF229D612D51697
:1003E0002308CD003E082E0503193E08D800003032
:1003F00058184004D818410458194204D819430425
:10040000581A4404D81A4504581B4604D81B4704FC
:10041000031D122A46080319561F122A5613551790
:100420002408CE003F082E0503193F08D8000030ED
:1004300058184004D818410458194204D8194304E4
:10044000581A4404D81A4504581B4604D81B4704BC
:10045000031D322A47080319D61F322AD613D5178F
:100460002408CF004008480603193A2A0130551CD9
:10047000FF30C007410849060319422A0130D51C44
:10048000FF30C10742084A0603194A2A0130551DA8
:10049000FF30C20743084B060319522A0130D51D0D
:1004A000FF30C30744084C0603195A2A0130551E71
:1004B000FF30C40745084D060319622A0130D51ED6
:1004C000FF30C50746084E0603196A2A0130551F3A
:1004D000FF30C60747084F06031999280130D51F7A
:1004E000FF30C7079928D4010F0C0E0C0F38D70026
:1004F000400703185414570841070318D414570829
:10050000420703185415570843070318D415570812
:10051000440703185416570845070318D4165708FC
:10052000460703185417570847070318D4175408E9
:100530000F398500540E0F39860099280C1C992814
:100540000C100130051802308518043005190830E8
:1005500085190130850001300618023086180430F4
:100560000619083086190130860099281F39FD00C8
:1005700051060319502B7D08D1000310FD0D031007
:100580007D0D203EFD007F25AC002C18B800AC1876
:10059000B9002C19BA00AC19BB002C1ABC00AC1A5B
:1005A000BD002C1BBE00AC1BBF007D0A7F25AD002B
:1005B0007D08023E7F25AE007D08033E7F25AF000B
:1005C0002C1CEE2AB0012D1830142E18B0142F1840
:1005D0003015C801551056102D185614AC1CFC2AA5
:1005E000B101AD183114AE18B114AF183115C901ED
:1005F000D510D610AD18D6142C1D0A2BB2012D190A
:1006000032142E19B2142F193215CA015511561170
:100610002D195615AC1D182BB301AD193314AE1995
:10062000B314AF193315CB01D511D611AD19D615A9
:100630002C1E262BB4012D1A34142E1AB4142F1A82
:100640003415CC01551256122D1A5616AC1E342BE9
:10065000B501AD1A3514AE1AB514AF1A3515CD0162
:10066000D512D612AD1AD6162C1F422BB6012D1B51
:1006700036142E1BB6142F1B3615CE0155135613E8
:100680002D1B5617AC1F502BB701AD1B3714AE1BDB
:10069000B714AF1B3715CF01D513D613AD1BD61723
:1006A000FB138B172C08FC000B302C1885250C3005
:1006B000AC1885250D302C1985250E30AC198525F3
:1006C0000F302C1A85251030AC1A852511302C1BC3
:1006D00085251230AC1B85253008FC00133085259C
:1006E0003108FC00143085253208FC0015308525C2
:1006F0003308FC00163085253408FC0017308525AA
:100700003508FC00183085253608FC001930852591
:100710003708FC001A30852D8B137B107308740684
:1007200075067606031DDF2B73080319D62BC03917
:10073000803A031DCD2B7B1A6B2DF41BF41DDF2B90
:1007400020083F39DD00271E5D17A71EDD1773083F
:100750003F39DC00741E5C17F41EDC17D8015D08FD
:100760005C060319C92BDD0A0830D8005D085C0659
:100770000319C92BDD0A1030D8005D085C06031987
:10078000C92BDD0A1830D8005D085C060319C92B97
:10079000DF2B740807395807B62A7308F039703A06
:1007A0000319E22B730FDF2B8B1708007408031D4E
:1007B000DF2B7B13FB17850186018B170800FB13CA
:1007C0008B170800FB1F2B2C7B1F292CFB194F2C90
:1007D0007B137408FC007308F739753A0319042C6D
:1007E000013A0319022C023A0319122C013A031997
:1007F000162C730803397A070925FB183C2CF31DC6
:10080000222C1A2C0830FF2BF31D0C2CF403F40DB2
:10081000740DFC39FA003C2CF403F40D740DFC3912
:100820007A06242C0530F31D222C3C2C0630F31DB7
:10083000222C312C7B192E2C85253E247B137B10FA
:100840008A243C2C7F257406031D3C2C3E247B13FC
:100850003C2C7B173C2CFB137B133C2C063A031DD2
:100860003C2C21307406031D3C2C3B253E247B137D
:100870007B108A24A6243C2C8B1708000F3085009F
:100880004F3086000630D8000030462C472CFF3E03
:10089000031D452CD80B452C8501860108007B13D0
:1008A0007508FC0073183C2C74080925FB183C2CB7
:1008B000F3195C2C731D3C2C731D702CF31D682CDC
:1008C0007B196B2C85253E247B137B108A243C2CC2
:1008D0007F257506242C21307506031D3C2C352CF4
:1008E0007F25FC007C308400073075056B20751E69
:1008F000812CF5198004FF3AF51D8005740809253F
:10090000582C00050319872CF519262C3C2CF51DB5
:10091000262C3C2C203084000030FD007D087F25F3
:1009200080002A3004060319982C840AFD0A8E2CB4
:10093000A70E27097039A700F030A104A10EA20468
:10094000A20EA304A30EA404A40E0800D501133024
:100950007F25B000301855142108551C0301C8002C
:1009600014307F25B1003118D5142108D51C03019E
:10097000C90015307F25B200321855152208551DC3
:100980000301CA0016307F25B3003318D51522089D
:10099000D51D0301CB0017307F25B4003418551640
:1009A0002308551E0301CC0018307F25B5003518EB
:1009B000D5162308D51E0301CD0019307F25B600BA
:1009C000361855172408551F0301CE001A307F250D
:1009D000B7003718D5172408D51F0301CF000B30F7
:1009E0007F25B8000C307F25B9000D307F25BA0077
:1009F0000E307F25BB000F307F25BC0010307F25D7
:100A0000BD0011307F25BE0012307F25BF00D6010A
:100A10000800FB107B11003A03190034083A03194F
:100A20000734143A031908341E3A03190134013A01
:100A300003190234073A03190334013A0319043441
:100A4000253A03190934013A03190A34D800213A26
:100A5000DE3E031C312D803E0318312D803E203EAA
:100A6000080058087B15273A03190534013A031981
:100A70000634FB147F340530DC009930DD00003093
:100A8000DF001B30D9006725FC005F088525DD0AE3
:100A90000319DC0ADF0AD90B432D2030DF00203098
:100AA000D9006725FC005F088525DD0A0319DC0AEB
:100AB000DF0AD90B512DFC014030DF006030D90036
:100AC0005F088525DF0AD90B602D8A0108005C08C4
:100AD0008A005D088200F41FDF2B85018601730800
:100AE0003F39A000FC0000308525740E0739A700AF
:100AF000A70E073AFC00073085257B129B2B831637
:100B00009B001C141A08831208007F257C06031919
:100B100008007C0883169A001C158B1355309D0025
:100B2000AA309D009C148B171C119C18952D8312C4
:100B3000080001340F340F340F340F340A340D34ED
:100B4000003480341E340B34033403340C340C343E
:100B500030343034C034C034013400340134003413
:100B600001340034013400340334013400340034DF
:100B700003340234003400340C34043400340034C0
:100B80000C34083400340034303410340034003471
:100B90003034203400340034C03440340034003465
:080BA000C0348034003400343D
:02400E00423F2F
:1042000001000F000F000F000F000A000D0000005A
:1042100080001E000B00030003000C000C003000A7
:104220003000C000C00001000000010000000100DB
:0642300000000100000087
:104240000300010000000000030002000000000065
:104250000C000400000000000C000800000000003A
:1042600030001000000000003000200000000000BE
:10427000C000400000000000C000800000000000FE
:10428000000000000000000000000000000000002E
:10429000000000000000000000000000000000001E
:1042A000000000000000000000000000000000000E
:1042B00000000000000000000000000000000000FE
:1042C00000000000000000000000000000000000EE
:1042D00000000000000000000000000000000000DE
:1042E00000000000000000000000000000000000CE
:1042F00000000000000000000000000000000000BE
:1043000000000000000000000000000000000000AD
:10431000000000000000000000000000000000009D
:10432000000000000000000000000000000000008D
:10433000000000000000000000000000000000007D
:1043900055346E346934533465346D346134663465
:1043A0002D34363434343834203476342E343134A9
:1043B00046342E3443346134F1346134643461342E
:1043C000303436342F34303438342F3430343834B9
:00000001FF
