:020000040000FA
:1000000083018B018A017528F000030EF100830142
:10001000861F1A2878088207292832283828382885
:10002000382838283828382838283E2845284D28A8
:1000300055286428663081000B110B10710E830067
:10004000F00E700E09000B10710E8300F00E700E92
:1000500009007B1CF70A0B19F701F6307707031824
:10006000F80A23280B19F80AF901F701F6012328E9
:1000700003140B190310F20DF80A232803140B19AB
:100080000310F20D790AF807232800300B1902300B
:10009000F8007208F300F90A232800300B19023027
:1000A000F8007208F400F90A23280B1D5E280230BC
:1000B000F8007208F500F90AFB152328F801720808
:1000C000F5007B14FB112328F8010B192428720872
:1000D000F6007B1423288A01820701340234043499
:1000E00008341034203440348034850186010730D0
:1000F0009F008316A0308600103085009F01883055
:10010000810000308C0083128C011130900020306F
:1001100084008001840A80300406031D8928883009
:100120008B00FA0183249F24FF30D1000230D000DD
:10013000D2007B188C23DB0BA7285B150310861AD3
:1001400003145A0DDA00C03A10300319FB067B1A6B
:100150009E2AFB1B99280C1C1C290C10D20B1C2955
:100160002A08D2002030FB06B01CC128C801551057
:100170005610FB1EBD2830195614FB1AC128301D1D
:100180005614B11CCE28C901D510D610FB1ECA28A2
:100190003119D614FB1ACE28311DD614B21CDB2817
:1001A000CA0155115611FB1ED72832195615FB1AD4
:1001B000DB28321D5615B31CE828CB01D511D6110A
:1001C000FB1EE4283319D615FB1AE828331DD61573
:1001D000B41CF528CC0155125612FB1EF128341917
:1001E0005616FB1AF528341D5616B51C0229CD01EA
:1001F000D512D612FB1EFE283519D616FB1A022977
:10020000351DD616B61C0F29CE0155135613FB1EED
:100210000B2936195617FB1A0F29361D5617B71C0E
:100220001C29CF01D513D613FB1E18293719D61751
:10023000FB1A1C29371DD617D00B732A2908D000AA
:100240000030B0180138B1180238B2180438B318A9
:100250000838B4181038B5182038B6184038B71810
:100260008038AE0038082E0503193808D800003051
:1002700058184004D818410458194204D8194304A6
:10028000581A4404D81A4504581B4604D81B47047E
:10029000031D522940080319561C522956105514A3
:1002A0002108C80039082E0503193908D800003084
:1002B00058184004D818410458194204D819430466
:1002C000581A4404D81A4504581B4604D81B47043E
:1002D000031D722941080319D61C7229D610D514A2
:1002E0002108C9003A082E0503193A08D800003041
:1002F00058184004D818410458194204D819430426
:10030000581A4404D81A4504581B4604D81B4704FD
:10031000031D922942080319561D9229561155159D
:100320002208CA003B082E0503193B08D8000030FC
:1003300058184004D818410458194204D8194304E5
:10034000581A4404D81A4504581B4604D81B4704BD
:10035000031DB22943080319D61DB229D611D5159C
:100360002208CB003C082E0503193C08D8000030B9
:1003700058184004D818410458194204D8194304A5
:10038000581A4404D81A4504581B4604D81B47047D
:10039000031DD22944080319561ED2295612551698
:1003A0002308CC003D082E0503193D08D800003075
:1003B00058184004D818410458194204D819430465
:1003C000581A4404D81A4504581B4604D81B47043D
:1003D000031DF22945080319D61EF229D612D51697
:1003E0002308CD003E082E0503193E08D800003032
:1003F00058184004D818410458194204D819430425
:10040000581A4404D81A4504581B4604D81B4704FC
:10041000031D122A46080319561F122A5613551790
:100420002408CE003F082E0503193F08D8000030ED
:1004300058184004D818410458194204D8194304E4
:10044000581A4404D81A4504581B4604D81B4704BC
:10045000031D322A47080319D61F322AD613D5178F
:100460002408CF004008480603193A2A0130551CD9
:10047000FF30C007410849060319422A0130D51C44
:10048000FF30C10742084A0603194A2A0130551DA8
:10049000FF30C20743084B060319522A0130D51D0D
:1004A000FF30C30744084C0603195A2A0130551E71
:1004B000FF30C40745084D060319622A0130D51ED6
:1004C000FF30C50746084E0603196A2A0130551F3A
:1004D000FF30C60747084F06031999280130D51F7A
:1004E000FF30C7079928D4010F0C0E0C0F38D70026
:1004F000400703185414570841070318D414570829
:10050000420703185415570843070318D415570812
:10051000440703185416570845070318D4165708FC
:10052000460703185417570847070318D4175408E9
:100530000F398500540E0F39860099280C1C992814
:100540000C100130051802308518043005190830E8
:1005500085190130850001300618023086180430F4
:100560000619083086190130860099281F39FD00C8
:1005700051060319502B7D08D1000310FD0D031007
:100580007D0D203EFD007825AC002C18B800AC187D
:10059000B9002C19BA00AC19BB002C1ABC00AC1A5B
:1005A000BD002C1BBE00AC1BBF007D0A7825AD0032
:1005B0007D08023E7825AE007D08033E7825AF0019
:1005C0002C1CEE2AB0012D1830142E18B0142F1840
:1005D0003015C801551056102D185614AC1CFC2AA5
:1005E000B101AD183114AE18B114AF183115C901ED
:1005F000D510D610AD18D6142C1D0A2BB2012D190A
:1006000032142E19B2142F193215CA015511561170
:100610002D195615AC1D182BB301AD193314AE1995
:10062000B314AF193315CB01D511D611AD19D615A9
:100630002C1E262BB4012D1A34142E1AB4142F1A82
:100640003415CC01551256122D1A5616AC1E342BE9
:10065000B501AD1A3514AE1AB514AF1A3515CD0162
:10066000D512D612AD1AD6162C1F422BB6012D1B51
:1006700036142E1BB6142F1B3615CE0155135613E8
:100680002D1B5617AC1F502BB701AD1B3714AE1BDB
:10069000B714AF1B3715CF01D513D613AD1BD61723
:1006A000FB138B172C08FC000B302C187E250C300C
:1006B000AC187E250D302C197E250E30AC197E2508
:1006C0000F302C1A7E251030AC1A7E2511302C1BD1
:1006D0007E251230AC1B7E253008FC0013307E25B1
:1006E0003108FC0014307E253208FC0015307E25D0
:1006F0003308FC0016307E253408FC0017307E25B8
:100700003508FC0018307E253608FC0019307E259F
:100710003708FC001A307E2D8B137B10730874068B
:1007200075067606031DD82B73080319CF2BC03925
:10073000803A031DC62B7B1A642DF41BF41DD82BA5
:1007400020083F39DD00271E5D17A71EDD1773083F
:100750003F39DC00741E5C17F41EDC17D8015D08FD
:100760005C060319C22BDD0A0830D8005D085C0660
:100770000319C22BDD0A1030D8005D085C0603198E
:10078000C22BD82B740807395807B62A7308F039DA
:10079000703A0319DB2B730FD82B8B1708007408E2
:1007A000031DD82B7B13FB17850186018B170800CF
:1007B000FB138B170800FB1F242C7B1F222CFB191B
:1007C000482C7B137408FC007308F739753A031939
:1007D000FD2B013A0319FB2B023A03190B2C013AAA
:1007E00003190F2C730803397A070225FB18352CDF
:1007F000F31D1B2C132C0830F82BF31D052CF403D0
:10080000F40D740DFC39FA00352CF403F40D740D5D
:10081000FC397A061D2C0530F31D1B2C352C0630B7
:10082000F31D1B2C2A2C7B19272C7E2537247B13A8
:100830007B108324352C78257406031D352C372432
:100840007B13352C7B17352CFB137B13352C063A89
:10085000031D352C21307406031D352C3425372417
:100860007B137B1083249F24352C8B1708000F30BB
:1008700085004F3086000630D80000303F2C402CD9
:10088000FF3E031D3E2CD80B3E2C8501860108003F
:100890007B137508FC007318352C74080225FB18AF
:1008A000352CF319552C731D352C731D692CF31D34
:1008B000612C7B19642C7E2537247B137B108324C9
:1008C000352C782575061D2C21307506031D352C19
:1008D0002E2C7825FC007C308400073075056B20B9
:1008E000751E7A2CF5198004FF3AF51D80057408F1
:1008F0000225512C00050319802CF5191F2C352CCD
:10090000F51D1F2C352C203084000030FD007D08A3
:10091000782580002A3004060319912C840AFD0AE8
:10092000872CA70E27097039A700F030A104A10E6B
:10093000A204A20EA304A30EA404A40E0800D501D1
:1009400013307825B000301855142108551C0301C8
:10095000C80014307825B1003118D5142108D51CF1
:100960000301C90015307825B20032185515220848
:10097000551D0301CA0016307825B3003318D5156C
:100980002208D51D0301CB0017307825B400341898
:1009900055162308551E0301CC0018307825B500E4
:1009A0003518D5162308D51E0301CD00193078253A
:1009B000B600361855172408551F0301CE001A300B
:1009C0007825B7003718D5172408D51F0301CF00A5
:1009D0000B307825B8000C307825B9000D3078251B
:1009E000BA000E307825BB000F307825BC001030DF
:1009F0007825BD0011307825BE0012307825BF0063
:100A0000D6010800FB107B11003A03190034083AA4
:100A100003190734143A031908341E3A0319013430
:100A2000013A03190234073A03190334013A03194E
:100A30000434253A03190934013A03190A34D80059
:100A4000213ADE3E031C2A2DA03E03182A2D603ECB
:100A5000203E080058087B15273A03190534013A4F
:100A600003190634FB147F340530DC009230DD00BE
:100A70000030DF001B30D9006025FC005F087E25B8
:100A8000DD0A0319DC0ADF0AD90B3C2D2030DF0018
:100A90002030D9006025FC005F087E25DD0A03199F
:100AA000DC0ADF0AD90B4A2DFC014030DF00403060
:100AB000D9005F087E25DF0AD90B592D8A0108006D
:100AC0005C088A005D088200F41FD82B850186012E
:100AD00073083F39A000FC0000307E25740E0739F2
:100AE000A700A70E073AFC0007307E257B129B2B40
:100AF00083169B001C141A088312080078257C06B4
:100B0000031908007C0883169A001C158B135530B6
:100B10009D00AA309D009C148B171C119C188E2DD3
:100B20008312080001340F340F340F340F340A34A9
:100B30000D34003480341E340B34033403340C344D
:100B40000C3430343034C034C03401340034013417
:100B500000340134003401340034033401340034EF
:100B6000003403340234003400340C3404340034D0
:100B700000340C3408340034003430341034003481
:100B800000343034203400340034C0344034003475
:0A0B90000034C03480340034003417
:02400E00423F2F
:1042000001000F000F000F000F000A000D0000005A
:1042100080001E000B00030003000C000C003000A7
:104220003000C000C00001000000010000000100DB
:0642300000000100000087
:104240000300010000000000030002000000000065
:104250000C000400000000000C000800000000003A
:1042600030001000000000003000200000000000BE
:10427000C000400000000000C000800000000000FE
:10428000000000000000000000000000000000002E
:10429000000000000000000000000000000000001E
:1042A000000000000000000000000000000000000E
:1042B00000000000000000000000000000000000FE
:1042C00000000000000000000000000000000000EE
:1042D00000000000000000000000000000000000DE
:1042E00000000000000000000000000000000000CE
:1042F00000000000000000000000000000000000BE
:00000001FF
