:020000040000FA
:1000000083018B018A017528F000030EF100830142
:10001000861F1A2878088207292832283828382885
:10002000382838283828382838283E2845284D28A8
:1000300055286428663081000B110B10710E830067
:10004000F00E700E09000B10710E8300F00E700E92
:1000500009007B1CF70A0B19F701F6307707031824
:10006000F80A23280B19F80AF901F701F6012328E9
:1000700003140B190310F20DF80A232803140B19AB
:100080000310F20D790AF807232800300B1902300B
:10009000F8007208F300F90A232800300B19023027
:1000A000F8007208F400F90A23280B1D5E280230BC
:1000B000F8007208F500F90AFB152328F801720808
:1000C000F5007B14FB112328F8010B192428720872
:1000D000F6007B1423288A01820701340234043499
:1000E00008341034203440348034850186010730D0
:1000F0009F00831680308600103085009F01883075
:10010000810000308C0083128C011130900020306F
:1001100084008001840A80300406031D8928883009
:100120008B00FA0178249424FF30D1000230D000F3
:10013000D2007B1881237B127B1A932AFB1B992800
:100140000C1C11290C10D20B11292A08D2002030C6
:10015000FB06B01CB628C80155105610FB1EB2286D
:1001600030195614FB1AB628301D5614B11CC3287A
:10017000C901D510D610FB1EBF283119D614FB1AA1
:10018000C328311DD614B21CD028CA0155115611EE
:10019000FB1ECC2832195615FB1AD028321D5615D5
:1001A000B31CDD28CB01D511D611FB1ED92833197C
:1001B000D615FB1ADD28331DD615B41CEA28CC0150
:1001C00055125612FB1EE62834195616FB1AEA2859
:1001D000341D5616B51CF728CD01D512D612FB1EBC
:1001E000F3283519D616FB1AF728351DD616B61C76
:1001F0000429CE0155135613FB1E00293619561734
:10020000FB1A0429361D5617B71C1129CF01D51327
:10021000D613FB1E0D293719D617FB1A1129371DC6
:10022000D617D00B682A2908D0000030B018013842
:10023000B1180238B2180438B3180838B418103896
:10024000B5182038B6184038B7188038AE003808CE
:100250002E0503193808D800003058184004D81863
:10026000410458194204D8194304581A4404D81AAE
:100270004504581B4604D81B4704031D4729400862
:100280000319561C4729561055142108C80039086F
:100290002E0503193908D800003058184004D81822
:1002A000410458194204D8194304581A4404D81A6E
:1002B0004504581B4604D81B4704031D6729410801
:1002C0000319D61C6729D610D5142108C9003A088D
:1002D0002E0503193A08D800003058184004D818E1
:1002E000410458194204D8194304581A4404D81A2E
:1002F0004504581B4604D81B4704031D87294208A0
:100300000319561D8729561155152208CA003B08A6
:100310002E0503193B08D800003058184004D8189F
:10032000410458194204D8194304581A4404D81AED
:100330004504581B4604D81B4704031DA72943083E
:100340000319D61DA729D611D5152208CB003C08C4
:100350002E0503193C08D800003058184004D8185E
:10036000410458194204D8194304581A4404D81AAD
:100370004504581B4604D81B4704031DC7294408DD
:100380000319561EC729561255162308CC003D08DE
:100390002E0503193D08D800003058184004D8181D
:1003A000410458194204D8194304581A4404D81A6D
:1003B0004504581B4604D81B4704031DE72945087C
:1003C0000319D61EE729D612D5162308CD003E08FC
:1003D0002E0503193E08D800003058184004D818DC
:1003E000410458194204D8194304581A4404D81A2D
:1003F0004504581B4604D81B4704031D072A46081A
:100400000319561F072A561355172408CE003F0814
:100410002E0503193F08D800003058184004D8189A
:10042000410458194204D8194304581A4404D81AEC
:100430004504581B4604D81B4704031D272A4708B8
:100440000319D61F272AD613D5172408CF00400832
:10045000480603192F2A0130551CFF30C0074108F8
:1004600049060319372A0130D51CFF30C10742085D
:100470004A0603193F2A0130551DFF30C2074308C1
:100480004B060319472A0130D51DFF30C307440826
:100490004C0603194F2A0130551EFF30C40745088A
:1004A0004D060319572A0130D51EFF30C5074608EF
:1004B0004E0603195F2A0130551FFF30C607470853
:1004C0004F06031999280130D51FFF30C707992817
:1004D000D4010F0C0E0C0F38D7004007031854142A
:1004E000570841070318D414570842070318541536
:1004F000570843070318D415570844070318541620
:10050000570845070318D416570846070318541709
:10051000570847070318D41754080F398500540E9D
:100520000F39860099280C1C99280C1001300518E9
:10053000023085180430051908308519013085000E
:100540000130061802308618043006190830861962
:100550000130860099281F39FD0051060319452BEB
:100560007D08D1000310FD0D03107D0D203EFD0020
:100570006D25AC002C18B800AC18B9002C19BA00C5
:10058000AC19BB002C1ABC00AC1ABD002C1BBE0061
:10059000AC1BBF007D0A6D25AD007D08023E6D25B8
:1005A000AE007D08033E6D25AF002C1CE32AB00190
:1005B0002D1830142E18B0142F183015C8015510EE
:1005C00056102D185614AC1CF12AB101AD18311477
:1005D000AE18B114AF183115C901D510D610AD1829
:1005E000D6142C1DFF2AB2012D1932142E19B21463
:1005F0002F193215CA01551156112D195615AC1D5A
:100600000D2BB301AD193314AE19B314AF19331553
:10061000CB01D511D611AD19D6152C1E1B2BB4014B
:100620002D1A34142E1AB4142F1A3415CC01551265
:1006300056122D1A5616AC1E292BB501AD1A3514BB
:10064000AE1AB514AF1A3515CD01D512D612AD1AA2
:10065000D6162C1F372BB6012D1B36142E1BB614A5
:100660002F1B3615CE01551356132D1B5617AC1FD5
:10067000452BB701AD1B3714AE1BB714AF1B371595
:10068000CF01D513D613AD1BD617FB138B172C0830
:10069000FC000B302C1873250C30AC1873250D3072
:1006A0002C1973250E30AC1973250F302C1A7325B5
:1006B0001030AC1A732511302C1B73251230AC1B73
:1006C00073253008FC00133073253108FC0014300A
:1006D00073253208FC00153073253308FC001630F2
:1006E00073253408FC00173073253508FC001830DA
:1006F00073253608FC00193073253708FC001A30C2
:10070000732D8B137B107308740675067606031D14
:10071000CD2B73080319C42BC039803A031DBB2BA2
:100720007B1A592DF41BF41DCD2B20083F39DD0019
:10073000271E5D17A71EDD1773083F39DC00741EE6
:100740005C17F41EDC17D8015D085C060319B72B93
:10075000DD0A0830D8005D085C060319B72BDD0AF6
:100760001030D8005D085C060319B72BCD2B740838
:1007700007395807AB2A7308F039703A0319D02BA0
:10078000730FCD2B8B1708007408031DCD2B7B1323
:10079000FB17850186018B170800FB138B170800D8
:1007A000FB1F192C7B1F172CFB193D2C7B13740886
:1007B000FC007308F739753A0319F22B013A031953
:1007C000F02B023A0319002C013A0319042C730888
:1007D00003397A07F724FB182A2CF31D102C082C58
:1007E0000830ED2BF31DFA2BF403F40D740DFC39D6
:1007F000FA002A2CF403F40D740DFC397A06122C3D
:100800000530F31D102C2A2C0630F31D102C1F2C44
:100810007B191C2C73252C247B137B1078242A2C09
:100820006D257406031D2A2C2C247B132A2C7B1780
:100830002A2CFB137B132A2C063A031D2A2C213069
:100840007406031D2A2C29252C247B137B10782465
:1008500094242A2C8B1708000F3085004F30860017
:100860000630D8000030342C352CFF3E031D332CCD
:10087000D80B332C8501860108007B137508FC001A
:1008800073182A2C7408F724FB182A2CF3194A2C05
:10089000731D2A2C731D5E2CF31D562C7B19592CAD
:1008A00073252C247B137B1078242A2C6D25750648
:1008B000122C21307506031D2A2C232C6D25FC00DB
:1008C0007C308400073075056B20751E6F2CF51980
:1008D0008004FF3AF51D80057408F724462C0005B6
:1008E0000319752CF519142C2A2CF51D142C2A2CFF
:1008F000203084000030FD007D086D2580002A3006
:1009000004060319862C840AFD0A7C2CA70E2709ED
:100910007039A700F030A104A10EA204A20EA30416
:10092000A30EA404A40E0800D50113306D25B00059
:10093000301855142108551C0301C80014306D25CA
:10094000B1003118D5142108D51C0301C900153098
:100950006D25B200321855152208551D0301CA0035
:1009600016306D25B3003318D5152208D51D0301A7
:10097000CB0017306D25B400341855162308551ECA
:100980000301CC0018306D25B5003518D5162308A5
:10099000D51E0301CD0019306D25B6003618551748
:1009A0002408551F0301CE001A306D25B7003718F3
:1009B000D5172408D51F0301CF000B306D25B800D3
:1009C0000C306D25B9000D306D25BA000E306D2547
:1009D000BB000F306D25BC0010306D25BD001130FF
:1009E0006D25BE0012306D25BF00D6010800FB103A
:1009F0007B11003A03190034083A03190734143AFA
:100A0000031908341E3A03190134013A0319023458
:100A1000073A03190334013A03190434253A031938
:100A20000934013A03190A34D800213ADE3E031C86
:100A30001F2DA03E03181F2D603E203E08005808C1
:100A40007B15273A03190534013A03190634FB14C0
:100A50007F340530DC008730DD000030DF001B30E4
:100A6000D9005525FC005F087325DD0A0319DC0A4F
:100A7000DF0AD90B312D2030DF002030D900552579
:100A8000FC005F087325DD0A0319DC0ADF0AD90BB5
:100A90003F2DFC014030DF004030D9005F08732556
:100AA000DF0AD90B4E2D8A0108005C088A005D0818
:100AB0008200F41FCD2B8501860173083F39A00009
:100AC000FC0000307325740E0739A700A70E073A03
:100AD000FC00073073257B12902B83169B001C149F
:100AE0001A08831208006D257C06031908007C088B
:100AF00083169A001C158B1355309D00AA309D005B
:100B00009C148B171C119C18832D83120800013430
:100B10000F340F340F340F340A340D340034803462
:100B20001E340B34033403340C340C34303430347E
:100B3000C034C03401340034013400340134003492
:100B400001340034033401340034003403340234FB
:100B5000003400340C340434003400340C340834D1
:100B60000034003430341034003400343034203455
:100B700000340034C034403400340034C034803495
:040B80000034003409
:02400E00423F2F
:1042000001000F000F000F000F000A000D0000005A
:1042100080001E000B00030003000C000C003000A7
:104220003000C000C00001000000010000000100DB
:0642300000000100000087
:104240000300010000000000030002000000000065
:104250000C000400000000000C000800000000003A
:1042600030001000000000003000200000000000BE
:10427000C000400000000000C000800000000000FE
:10428000000000000000000000000000000000002E
:10429000000000000000000000000000000000001E
:1042A000000000000000000000000000000000000E
:1042B00000000000000000000000000000000000FE
:1042C00000000000000000000000000000000000EE
:1042D00000000000000000000000000000000000DE
:1042E00000000000000000000000000000000000CE
:1042F00000000000000000000000000000000000BE
:00000001FF
